{
  "contractName": "OracleEUR_USD",
  "abi": [
    {
      "inputs": [],
      "stateMutability": "nonpayable",
      "type": "constructor"
    },
    {
      "inputs": [],
      "name": "getLatestPrice",
      "outputs": [
        {
          "internalType": "int256",
          "name": "",
          "type": "int256"
        }
      ],
      "stateMutability": "view",
      "type": "function",
      "constant": true
    }
  ],
  "bytecode": "0x608060405234801561001057600080fd5b50730c15ab9a0db086e062194c273cc79f41597bbf136000806101000a81548173ffffffffffffffffffffffffffffffffffffffff021916908373ffffffffffffffffffffffffffffffffffffffff1602179055506101e1806100746000396000f3fe608060405234801561001057600080fd5b506004361061002b5760003560e01c80638e15f47314610030575b600080fd5b61003861004e565b6040518082815260200191505060405180910390f35b60008060008060008060008054906101000a900473ffffffffffffffffffffffffffffffffffffffff1673ffffffffffffffffffffffffffffffffffffffff1663feaf968c6040518163ffffffff1660e01b815260040160a06040518083038186803b1580156100bd57600080fd5b505afa1580156100d1573d6000803e3d6000fd5b505050506040513d60a08110156100e757600080fd5b81019080805190602001909291908051906020019092919080519060200190929190805190602001909291908051906020019092919050505094509450945094509450600082116101a0576040517f08c379a00000000000000000000000000000000000000000000000000000000081526004018080602001828103825260128152602001807f526f756e64206e6f7420636f6d706c657465000000000000000000000000000081525060200191505060405180910390fd5b83955050505050509056fea26469706673582212202e40bb99b3e4835961b16bc266748aa38c19a0c800f83d23baad3d9ba2e7949564736f6c634300060c0033",
  "immutableReferences": {},
  "source": "// SPDX-License-Identifier: MIT\npragma solidity ^0.6.12;\n\n// remix test SC\n// dpeloyed to the Kovan network\nimport \"@chainlink/contracts/src/v0.6/interfaces/AggregatorV3Interface.sol\";\n\ncontract OracleEUR_USD {\n    // priceFeed AggregatorV3Interface EUR/USD\n    AggregatorV3Interface internal priceFeed;\n\n    constructor() public {\n        priceFeed = AggregatorV3Interface(\n            0x0c15Ab9A0DB086e062194c273CC79f41597Bbf13\n        ); // EUR/USD ON Kovan\n    }\n\n    // Returns the latest EUR USD price\n    function getLatestPrice() public view returns (int256) {\n        (\n            uint80 roundID,\n            int256 price,\n            uint256 startedAt,\n            uint256 timeStamp,\n            uint80 answeredInRound\n        ) = priceFeed.latestRoundData();\n        // If the round is not complete yet, timestamp is 0\n        require(timeStamp > 0, \"Round not complete\");\n        return price; // this would cut all decimals!\n    }\n}\n",
  "sourcePath": "C:/Users/amaz__k3yqdzg/DigitalEuro/contracts/OracleEUR_USD.sol",
  "compiler": {
    "name": "solc",
    "version": "0.6.12+commit.27d51765.Emscripten.clang"
  },
  "schemaVersion": "3.2.5",
  "updatedAt": "2020-10-14T17:13:41.459Z",
  "networkType": "ethereum",
  "devdoc": {
    "kind": "dev",
    "methods": {},
    "version": 1
  },
  "userdoc": {
    "kind": "user",
    "methods": {},
    "version": 1
  }
}